:100000000C9463000C948B000C948B000C9465038F
:100010000C9465030C9465030C948B000C948B007A
:100020000C948B000C948B000C948B000C948B0024
:100030000C948B000C948B000C948B000C948B0014
:100040000C94C3020C948B000C9433030C940D039A
:100050000C948B000C948B000C948B000C948B00F4
:100060000C948B000C948B0000000008000201002F
:100070000003040700000000000000000000000072
:1000800023002600290000000000240027002A0089
:1000900000000000250028002B00040404040404D0
:1000A0000404020202020202030303030303010227
:1000B00004081020408001020408102001020408F6
:1000C00010202904670611241FBECFEFD8E0DEBF41
:1000D000CDBF22E0A8E6B1E001C01D92A137B20772
:1000E000E1F711E0A0E0B1E0ECE2FDE002C0059034
:1000F0000D92A836B107D9F710E0C2E6D0E004C0EF
:100100002197FE010E948306C136D107C9F70E94DC
:1001100012050C9489060C9400003FB7F894809166
:10012000B1019091B201A091B301B091B40126B593
:10013000A89B05C02F3F19F00196A11DB11D3FBF1F
:10014000BA2FA92F982F8827BC01CD01620F711DEE
:10015000811D911D42E0660F771F881F991F4A95E8
:10016000D1F708958F929F92AF92BF92CF92DF9274
:10017000EF92FF924B015C010E948D006B017C01AC
:100180000E948D006C197D098E099F09683E73409D
:1001900081059105A8F321E0821A9108A108B10810
:1001A00088EEC80E83E0D81EE11CF11C8114910476
:1001B000A104B10429F7FF90EF90DF90CF90BF909A
:1001C000AF909F908F900895AF92BF92CF92DF92A1
:1001D000EF92FF920F931F93CF93DF936C017B01FC
:1001E0008B01040F151FEB015E01AE18BF08C0178D
:1001F000D10759F06991D601ED91FC910190F08100
:10020000E02DC6010995892B79F7C501DF91CF91C2
:100210001F910F91FF90EF90DF90CF90BF90AF9024
:100220000895FC01538D448D252F30E0842F90E0FC
:10023000821B930B541710F0CF96089501970895E1
:10024000FC01918D828D981761F0A28DAE0FBF2FAA
:10025000B11D5D968C91928D9F5F9F73928F90E000
:1002600008958FEF9FEF0895FC01918D828D98176F
:1002700031F0828DE80FF11D858D90E008958FEFAC
:100280009FEF0895FC01918D228D892F90E0805C75
:100290009F4F821B91098F739927089585EB91E0F9
:1002A0000E94420121E0892B09F420E0822F089569
:1002B00080E090E0892B29F00E944E0181110C947E
:1002C00000000895FC01A48DA80FB92FB11DA35AF9
:1002D000BF4F2C91848D90E001968F739927848F66
:1002E000A689B7892C93A089B1898C918370806489
:1002F0008C93938D848D981306C00288F389E02D2A
:1003000080818F7D80830895EF92FF920F931F93DA
:10031000CF93DF93EC0181E0888F9B8D8C8D9813B8
:100320001AC0E889F989808185FF15C09FB7F894C4
:10033000EE89FF896083E889F98980818370806410
:1003400080839FBF81E090E0DF91CF911F910F915B
:10035000FF90EF900895F62E0B8D10E00F5F1F4F6A
:100360000F731127E02E8C8D8E110CC00FB607FC79
:10037000FACFE889F989808185FFF5CFCE010E9407
:100380006201F1CFEB8DEC0FFD2FF11DE35AFF4F12
:10039000F0829FB7F8940B8FEA89FB898081806295
:1003A000CFCFCF93DF93EC01888D8823B9F0AA8952
:1003B000BB89E889F9898C9185FD03C0808186FD20
:1003C0000DC00FB607FCF7CF8C9185FFF2CF80816F
:1003D00085FFEDCFCE010E946201E9CFDF91CF9181
:1003E00008952091AA013091AB012817390771F4C3
:1003F0009091A8018091A901981741F0E091A8017E
:10040000F0E0E859FE4F808190E008958FEF9FEF74
:1004100008950895EF92FF920F931F93CF93DF9368
:10042000DC015C96ED90FC905D97E114F10479F4A9
:1004300081E090E013969C938E93129790E080E079
:10044000DF91CF911F910F91FF90EF9008955196FA
:10045000ED91FC91529750968C915097982F9095D2
:100460000FB75E962C915E97122F127021FD60954A
:10047000F8942081112319F1282B2083E70121977B
:10048000F1F728E0462F50E0308160FF1AC0382B8A
:100490003083E7012197F1F7BA01759567952150EF
:1004A00089F7112381F08081892380830FBF5C96B7
:1004B0008D919C910197F1F781E090E0C1CF2923C4
:1004C000DCCF3923E5CF9081892BEFCF2091AA0192
:1004D0003091AB012817390761F48091A90120916F
:1004E000A80190E0805C9F4F821B91098F73992730
:1004F000089590E080E008952091AA013091AB0129
:1005000028173907B9F49091A8018091A90198178B
:1005100089F0E091A801F0E0E859FE4F8081209138
:10052000A80130E02F5F3F4F2F7333272093A8019E
:1005300090E008958FEF9FEF089590E080E0089598
:10054000FB0101900020E9F73197AF01461B570BE3
:10055000DC01ED91FC910280F381E02D09940F9371
:100560001F93CF93DF93EC010E94A0028C0164E201
:1005700071E0CE010E94A002800F911FDF91CF9108
:100580001F910F9108951F920F920FB60F92112491
:100590002F933F938F939F93AF93BF938091AD0120
:1005A0009091AE01A091AF01B091B0013091AC013A
:1005B00023E0230F2D3758F50196A11DB11D20937F
:1005C000AC018093AD019093AE01A093AF01B093C5
:1005D000B0018091B1019091B201A091B301B091AD
:1005E000B4010196A11DB11D8093B1019093B20198
:1005F000A093B301B093B401BF91AF919F918F913C
:100600003F912F910F900FBE0F901F90189526E8E5
:10061000230F0296A11DB11DD2CF1F920F920FB6CC
:100620000F9211242F933F934F935F936F937F9378
:100630008F939F93AF93BF93EF93FF9385EB91E0DD
:100640000E946201FF91EF91BF91AF919F918F91B5
:100650007F916F915F914F913F912F910F900FBEBE
:100660000F901F9018951F920F920FB60F921124A2
:100670002F938F939F93EF93FF93E091C501F09198
:10068000C6018081E091CB01F091CC0182FD1BC0BD
:1006900090818091CE018F5F8F732091CF0182175F
:1006A00041F0E091CE01F0E0EB54FE4F958F809346
:1006B000CE01FF91EF919F918F912F910F900FBEDF
:1006C0000F901F9018958081F4CF1F920F920FB654
:1006D0000F9211242F933F934F935F936F937F93C8
:1006E0008F939F93AF93BF93EF93FF93E091AA01F2
:1006F000F091AB01309749F0A685B7858585968D39
:1007000091FF14C09C918923A1F4FF91EF91BF91B7
:10071000AF919F918F917F916F915F914F913F9199
:100720002F910F900FBE0F901F9018959C918923C9
:1007300061F7A389B4899C918589809589238C93DD
:10074000868997890197F1F7608D718DA685B785A8
:10075000558538E020E0CB010197F1F7822F90E03A
:1007600095958795282F4C91452309F020683150A5
:1007700091F7868D81FD20958091A90190E00196E9
:100780008F7399273091A801381799F0A091A9018A
:10079000B0E0A859BE4F2C938093A901828D938D10
:1007A0000197F1F7A389B4898C919589892B8C9352
:1007B000ACCF868D8160868FF1CF90E0FC01E85947
:1007C000FF4F2491FC01E255FF4F3491FC01E656A6
:1007D000FF4FE491EE23C9F0222339F0233001F1D9
:1007E000A8F4213019F1223029F1F0E0EE0FFF1FBB
:1007F000E057FF4FA591B4918FB7F894EC91611138
:1008000026C030953E233C938FBF08952730A9F032
:100810002830C9F0243049F7809180008F7D03C0D3
:10082000809180008F7780938000DFCF84B58F77B1
:1008300084BDDBCF84B58F7DFBCF8091B0008F77F7
:100840008093B000D2CF8091B0008F7DF9CF3E2B46
:10085000DACF0F931F93CF93DF931092B8011092CA
:10086000B70188EE93E0A0E0B0E08093B9019093E7
:10087000BA01A093BB01B093BC0124E031E03093F6
:10088000B6012093B50125EC30E03093C2012093EE
:10089000C10124EC30E03093C4012093C30120EC6B
:1008A00030E03093C6012093C50121EC30E0309355
:1008B000C8012093C70122EC30E03093CA01209395
:1008C000C90126EC30E03093CC012093CB0110928B
:1008D000CE011092CF011092D0011092D10110924E
:1008E0005502109254028093560290935702A0939F
:1008F0005802B093590286E191E09093530280939D
:100900005202109269021092680210926B021092C9
:100910006A0210926D0210926C0210926F02109295
:100920006E02609170026E7F6D7F609370026695BB
:10093000617081E0682783E00E94DD0341EB50E0B5
:10094000FA0164918DE990E0FC012491222399F051
:1009500030E0220F331FF901EA57FF4FA591B49100
:10096000F901E057FF4F259134912FB7F8943C914E
:10097000632B6C932FBFFA01449140936202FC01F8
:100980008491E82FF0E0EE0FFF1FE057FF4F8591B5
:100990009491909364028093630200EB10E0F8015D
:1009A0002491CCE9D0E0FE0184918823C9F090E045
:1009B000880F991FFC01EA57FF4FA591B491FC01E4
:1009C000E057FF4F459154913FB7F8949C91822F87
:1009D000809598239C93FA019081892380833FBF5F
:1009E0008091700281FD04C061E082E00E94DD031D
:1009F00082E080935E02F801049100935F02FE01A1
:100A0000C491EC2FF0E0EE0FFF1FE458FF4F8591EB
:100A100094919093610280936002DF91CF911F9136
:100A20000F910895789484B5826084BD84B5816007
:100A300084BD85B5826085BD85B5816085BD8091A9
:100A40006E00816080936E00109281008091810021
:100A50008260809381008091810081608093810019
:100A6000809180008160809380008091B1008460DB
:100A70008093B1008091B00081608093B00080913C
:100A80007A00846080937A0080917A0082608093FB
:100A90007A0080917A00816080937A0080917A0058
:100AA000806880937A001092C100E091C501F091B6
:100AB000C60182E08083E091C101F091C201108201
:100AC000E091C301F091C40180E180831092CD01D7
:100AD000E091C901F091CA0186E08083E091C701ED
:100AE000F091C801808180618083E091C701F0911D
:100AF000C801808188608083E091C701F091C801BE
:100B0000808180688083E091C701F091C801808175
:100B10008F7D808310926D0210926C0210926B0296
:100B200010926A0210926902109268028FE190E0BE
:100B300090936F0280936E0290915E02963108F05E
:100B400047C021E030E030936902209368022DE134
:100B500030E030936B0220936A022DE030E0309356
:100B60006D0220936C022091680084E0983048F078
:100B700031E09E3008F430E081E001C0880F3A9502
:100B8000EAF7822B809368002DE630E0983050F031
:100B90002BE630E09E3030F02CE630E0963110F05D
:100BA00030E020E03093660220936502292F30E088
:100BB000983008F07FC081E001C0880F9A95EAF76D
:100BC0008093670280916E0290916F020197F1F716
:100BD00080916C0290916D02892B49F1E091AA01FC
:100BE000F091AB0182E0E235F80709F1309739F076
:100BF000A389B4899C918589809589238C93809160
:100C000070028E7F809370021092A9011092A80149
:100C100082E592E09093AB018093AA01E091650296
:100C2000F0916602808190916702892B808367E250
:100C300071E082E592E00E94A00260ED77E080E042
:100C400090E00E94B2006FE271E082E592E00E94C3
:100C5000AF0268EE73E080E090E00E94B20066E3CD
:100C600071E082E592E00E94AF0268EB7BE080E0F9
:100C700090E00E94B2006DE371E082E592E00E9494
:100C8000AF0268EB7BE080E090E00E94B20069E494
:100C900071E082E592E00E94AF0268EB7BE080E0C9
:100CA00090E00E94B20062E671E085EB91E00E9464
:100CB000AF02FFCF9E3040F42850310981E001C0DF
:100CC000880F2A95EAF77CCF2E503109F7CF86E1BD
:100CD00091E090935302809352028091AA019091E7
:100CE000AB018255924071F4E0916502F091660289
:100CF0009081809167028095892380831092AB0157
:100D00001092AA010895EE0FFF1F0590F491E02DB7
:100D1000099410E0C2E6D0E004C0FE010E94830600
:0C0D20002196C336D107C9F7F894FFCF25
:100D2C00000000008401E4001101D1014201200106
:100D3C003401000000000A02E4009D020902660270
:100D4C007C02F1010D0A002A2A2A5645523A00412A
:100D5C00542B5253540041542B474D520041542BA9
:100D6C0043574D4F44453D330041542B554152544C
:100D7C005F4445463D393630302C382C312C302CE4
:080D8C003000446F6E650000A9
:00000001FF
