:020000040000FA
:100000000C9462000C948A000C948A000C948A0070
:100010000C948A000C948A000C948A000C948A0038
:100020000C948A000C948A000C948A000C948A0028
:100030000C948A000C948A000C948A000C948A0018
:100040000C94F8070C948A000C9468080C944208ED
:100050000C948A000C948A000C948A000C948A00F8
:100060000C949A080C948A000000000024002700D9
:100070002A0000000000250028002B0000000008D6
:10008000000201000003040700000000000000005F
:1000900000000000230026002900040404040404D6
:1000A0000404020202020202030303030303010227
:1000B00004081020408001020408102001020408F6
:1000C0001020FE0911241FBECFEFD8E0DEBFCDBF48
:1000D00011E0A0E0B1E0E0E4F1E202C005900D9291
:1000E000A238B107D9F723E0A2E8B1E001C01D9220
:1000F000A931B207E1F710E0C2E6D0E004C02197D1
:10010000FE010E949810C136D107C9F70E94660A05
:100110000C949E100C940000CF92DF92EF92FF920D
:10012000CF93DF93B0910103A0E08111AB2F8091B9
:10013000020390E0880F991FAC0140575F4FC090B9
:100140000703D0900803E0900903F0900A0330E021
:1001500020E0FA01C591D491E881B90190E080E0F6
:10016000EB23EA130AC02F5F3F4F6C157D058E0508
:100170009F0578F36FEF7FEFCB01DF91CF91FF9079
:10018000EF90DF90CF900895FC01538D448D252F83
:1001900030E0842F90E0821B930B541710F0CF9621
:1001A000089501970895FC01918D828D981761F053
:1001B000A28DAE0FBF2FB11D5D968C91928D9F5F6A
:1001C0009F73928F90E008958FEF9FEF0895FC0149
:1001D000918D828D981731F0828DE80FF11D858DFC
:1001E00090E008958FEF9FEF0895FC01918D228D8F
:1001F000892F90E0805C9F4F821B91098F73992714
:100200000895FC01A48DA80FB92FB11DA35ABF4FAB
:100210002C91848D90E001968F739927848FA68905
:10022000B7892C93A089B1898C91837080648C9359
:10023000938D848D981306C00288F389E02D808108
:100240008F7D80830895EF92FF920F931F93CF933A
:10025000DF93EC0181E0888F9B8D8C8D98131AC001
:10026000E889F989808185FF15C09FB7F894EE89E8
:10027000FF896083E889F989808183708064808345
:100280009FBF81E090E0DF91CF911F910F91FF9090
:10029000EF900895F62E0B8D10E00F5F1F4F0F7338
:1002A0001127E02E8C8D8E110CC00FB607FCFACFF3
:1002B000E889F989808185FFF5CFCE010E9401018F
:1002C000F1CFEB8DEC0FFD2FF11DE35AFF4FF082C4
:1002D0009FB7F8940B8FEA89FB8980818062CFCF2A
:1002E000CF93DF93EC01888D8823B9F0AA89BB896D
:1002F000E889F9898C9185FD03C0808186FD0DC058
:100300000FB607FCF7CF8C9185FFF2CF808185FF78
:10031000EDCFCE010E940101E9CFDF91CF91089589
:1003200081E592E00E94F50021E0892B09F420E0AC
:10033000822F089580E090E0892B29F00E9490019F
:1003400081110C9400000895833081F028F48130ED
:1003500099F08230A9F008958730A9F08830C9F06B
:100360008430B1F4809180008F7D03C08091800043
:100370008F7780938000089584B58F7784BD08952A
:1003800084B58F7DFBCF8091B0008F778093B000D4
:1003900008958091B0008F7DF9CF1F93CF93DF93A5
:1003A000282F30E0F901E458FF4F8491F901E2551C
:1003B000FF4FD491F901E656FF4FC491CC23A9F029
:1003C000162F81110E94A401EC2FF0E0EE0FFF1F09
:1003D000EE58FF4FA591B4918FB7F894EC9111119D
:1003E00008C0D095DE23DC938FBFDF91CF911F91A2
:1003F0000895DE2BF8CFCF93DF9390E0FC01E25518
:10040000FF4F249186569F4FFC0184918823C9F0A9
:1004100090E0880F991FFC01E859FF4FA591B49116
:10042000FC01EE58FF4FC591D49161110DC09FB7EB
:10043000F8948C91209582238C938881282328839B
:100440009FBFDF91CF910895623051F49FB7F89428
:100450003C91822F809583238C93E8812E2BEFCFC4
:100460008FB7F894EC912E2B2C938FBFEACF3FB728
:10047000F8948091490290914A02A0914B02B09168
:100480004C0226B5A89B05C02F3F19F00196A11D6F
:10049000B11D3FBFBA2FA92F982F8827BC01CD01CE
:1004A000620F711D811D911D42E0660F771F881F2D
:1004B000991F4A95D1F708958F929F92AF92BF925C
:1004C000CF92DF92EF92FF924B015C010E943702C4
:1004D0006B017C010E9437026C197D098E099F090E
:1004E000683E734081059105A8F321E0821A9108C6
:1004F000A108B10888EEC80E83E0D81EE11CF11CEB
:1005000081149104A104B10429F7FF90EF90DF90CA
:10051000CF90BF90AF909F908F900895CF92DF9231
:10052000EF92FF920F931F93CF93DF93CDB7DEB778
:10053000C054D1400FB6F894DEBF0FBECDBF2FB769
:10054000F89480914D0290914E02A0914F02B0918B
:1005500050022FBF409103035091040360910503A3
:10056000709106038C019D01041B150B260B370BA4
:10057000B901A801403D57406105710590F4809193
:100580000B03C05CDE4F0FB6F894DEBF0FBECDBFCD
:10059000DF91CF911F910F91FF90EF90DF90CF905F
:1005A00008958093030390930403A0930503B093ED
:1005B00006031092FE021092FD021092FC021092AD
:1005C000FB021092FA0262E08091FF020E94FB019E
:1005D00061E070E080E090E00E945C0261E0809168
:1005E000FF020E94FB0160E08091FF020E94CD01AA
:1005F000809100038551823020F58BE291E10197D3
:10060000F1F762E08091FF020E94FB0180910C03F0
:1006100090E08230910538F0880F991F880F991F5C
:1006200005970197F1F7F89480E00E948C006F3FE6
:100630007F4F8F4F9F4F61F410920B03789480E0AF
:10064000A0CF64E170E080E090E00E945C02D9CF2E
:1006500081E00E948C006F3F7F4F8F4F9F4F61F36F
:100660008E010F5F1F4F6E018FEBC81A8EEFD80AF5
:10067000780180E00E948C00F7016083718382839F
:10068000938381E00E948C00F701648375838683E5
:100690009783F8E0EF0EF11CEC14FD0451F7789409
:1006A00030E020E0F801C080D180E280F380448116
:1006B000558166817781FFEFCF16DF06EF06FF06D3
:1006C00031F04F3F8FEF58076807780719F4109201
:1006D0000B03B5CFF90183E0F595E7958A95E1F72E
:1006E000E650FD4F8081880FC416D506E606F70652
:1006F00010F180832F5F3F4F085F1F4F2832310575
:1007000089F64091FE022091FA028091FB02280FA7
:100710003327331F8091FC02280F311D8091FD0289
:10072000820F932F911D99274817190681F681E0B2
:1007300080930B0326CF8160DCCF08950895DC0100
:10074000ED91FC910190F081E02D0994AF92BF9260
:10075000CF92DF92EF92FF920F931F93CF93DF938D
:100760006C017B018B01040F151FEB015E01AE18BC
:10077000BF08C017D10759F06991D601ED91FC91DE
:100780000190F081E02DC6010995892B79F7C5010B
:10079000DF91CF911F910F91FF90EF90DF90CF905D
:1007A000BF90AF90089508952091C301260F33277D
:1007B000331F21323105ECF420910C02FC0190E052
:1007C00080E0243069F082E00895A091C301219176
:1007D000AC014D555E4FA40FB52FB11D2C93019662
:1007E000861798F38091C301680F6093C30180E07E
:1007F000089581E0089510920C0281E080930B022D
:100800001092E60161E082E10E94CD0161E083E1A6
:100810000E94CD01E9EBF0E080818E7F80838081B2
:100820008D7F808388E48093B80085E48093BC004A
:100830000895CF93DF9391E09093A2018823B9F0BC
:10084000C091B800D091BA008091BC008A7B80939F
:10085000BC0060E082E10E94CD0160E083E10E9483
:10086000CD010E94FB03D093BA00C093B800DF9182
:10087000CF9108950895E0913B0280913A02E817E4
:1008800030F4F0E0EE57FE4F808190E008958FEF56
:100890009FEF089590913B0280913A022FEF3FEF36
:1008A000981748F4E92FF0E0EE57FE4F208130E032
:1008B0009F5F90933B02C901089580913A02909105
:1008C0003B02891B990B0895CF92DF92EF92FF9222
:1008D0000F931F93CF93DF937C01CB018A0120916B
:1008E0001202222389F0EB016B01C40ED51ECC1538
:1008F000DD0569F06991D701ED91FC910190F081DE
:10090000E02DC7010995F3CF642F0E94D403C801DD
:10091000DF91CF911F910F91FF90EF90DF90CF90DB
:100920000895CF93DF931F92CDB7DEB769832091EF
:1009300012022223F9F020913802203258F021E0EF
:1009400030E0FC013383228390E080E00F90DF9160
:10095000CF91089580913902E82FF0E0ED5EFD4FD0
:10096000998190838F5F809339028093380281E070
:1009700090E0ECCF61E0CE0101960E94D403F7CF66
:10098000CF92DF92EF92FF920F931F93CF93DF935B
:10099000FC01C48121E020931202C0933302109223
:1009A0003902109238028385682B8EEE92E00E9405
:1009B0009104D0913802D13208F092C00E943702DF
:1009C0006B017C0180910C02811165C082E08093F3
:1009D0000C0281E080930B028FEF80930A02109249
:1009E0000902D0930802A3E1B2E0E8EEF1E080E072
:1009F000D81385C01092E7018091E701CC0FC82B76
:100A0000C093E7018091E601813009F07CC010922B
:100A1000E6010E9437026B017C018091E70180931F
:100A2000BB0080910E0290910F02A0911002B09134
:100A30001102892B8A2B8B2B99F00E94370200918F
:100A40000E0210910F0220911002309111026C19C8
:100A50007D098E099F090617170728073907E0F156
:100A60008091BC0083FDD9CF85EC8093BC000E94AF
:100A700037026B017C0180910C02823009F445C081
:100A800080910A028F3F61F180910A02803241F128
:100A900080910A0225C080910E0290910F02A091D0
:100AA0001002B0911102892B8A2B8B2B09F48ACF6B
:100AB0000E94370200910E0210910F022091100245
:100AC000309111026C197D098E099F0906171707CD
:100AD0002807390708F076CF80910D020E9419048B
:100AE000109239021092380210921202DF91CF91C7
:100AF0001F910F91FF90EF90DF90CF9008959D91FF
:100B000091938F5F75CF85EEB0CF80910E0290915B
:100B10000F02A0911002B0911102892B8A2B8B2B0E
:100B200009F4A9CF0E94370200910E0210910F0222
:100B300020911002309111026C197D098E099F09D4
:100B4000061717072807390708F095CFC5CF90E09B
:100B500080E008950F931F93CF938C01C62F0E94BE
:100B6000C0046C2F6460C8010E94C0046C2F6B7FAE
:100B7000C8010E94C00483EC90E00197F1F7CF9187
:100B80001F910F9108950F931F93CF93DF938C01C3
:100B9000D62FC42F607F642B0E94AA0580E1D89FC6
:100BA000B00111246C2BC801DF91CF911F910F91DF
:100BB0000C94AA0540E061E08DE093E00E94C3053B
:100BC0008BE39FE10197F1F70895CF93DF93CDB7C2
:100BD000DEB728970FB6F894DEBF0FBECDBF98E002
:100BE000E0E0F1E0DE01119601900D929A95E1F7B7
:100BF00090911503961710F46FEF690F262F30E0D0
:100C0000220F331F41E050E04C0F5D1F240F351FB2
:100C1000F9016081680F606840E08DE093E02896FC
:100C20000FB6F894DEBF0FBECDBFDF91CF910C940D
:100C3000C30541E00E94C30581E090E008950F9351
:100C40001F93462F90E0FC01E255FF4F6491FC0199
:100C5000E656FF4FE4914111462FF0E0EE0FFF1FE3
:100C6000E057FF4F8591949100E412E42FE030E0CB
:100C70000E94B909611571058105910529F06F5F21
:100C80007F4F8F4F9F4F9F701F910F910895FB01D2
:100C900001900020E9F73197AF01461B570BDC01AB
:100CA000ED91FC910280F381E02D09948F929F9247
:100CB000AF92BF92EF92FF920F931F93CF93DF9368
:100CC000CDB7DEB7A1970FB6F894DEBF0FBECDBF8C
:100CD0007C01FA01CB0119A2223008F42AE08E012E
:100CE0000F5D1F4F822E912CB12CA12CBF01A501AD
:100CF00094010E946210F901CA016A300CF5605D2E
:100D0000D8016E938D01232B242B252B79F790E0AE
:100D100080E0109721F0BD01C7010E944706A1960F
:100D20000FB6F894DEBF0FBECDBFDF91CF911F91FC
:100D30000F91FF90EF90BF90AF909F908F9008958C
:100D4000695CDECFCF92DF92EF92FF920F931F93F9
:100D5000CF93DF936B01770FEE08FF08F7FE1BC000
:100D6000EC016DE20E949F038C0144275527BA01D4
:100D70004C195D096E097F092AE0CE010E945606D2
:100D8000800F911FDF91CF911F910F91FF90EF90F6
:100D9000DF90CF9008952AE0B701A601DF91CF91AF
:100DA0001F910F91FF90EF90DF90CF900C9456061B
:100DB0002F923F924F925F926F927F928F929F926B
:100DC000AF92BF92CF92DF92EF92FF921F93CF9399
:100DD000DF93EC016A017B01722EAB019601CB011E
:100DE000B6010E94491068E371E0811126C04601F6
:100DF0005701E894B7F82FEF3FEF4FE75FE7C501E2
:100E0000B4010E94491081110CC02FEF3FEF4FE752
:100E10005FE7C501B4010E947F0E6CE371E0181614
:100E200064F02FEF3FEF4FE75FE4C701B6010E9488
:100E3000D70F1816B4F460E471E0CE01DF91CF91C2
:100E40001F91FF90EF90DF90CF90BF90AF909F9059
:100E50008F907F906F905F904F903F902F900C9469
:100E600047062FEF3FEF4FE75FECC701B6010E9447
:100E70007F0E87FDE0CF20E030E0A901C701B60179
:100E80000E947F0E312C212C87FF09C06DE2CE011C
:100E90000E949F031C01F7FAF094F7F8F09410E019
:100EA00060E070E080E09FE3711641F020E030E008
:100EB00040E251E40E94840E1F5FF6CFA701960125
:100EC0000E94130E2B013C010E94F60E4B015C01A7
:100ED0002AE0BC01A401CE010E9456067C01E20C6E
:100EE000F31C1123C1F1C501B4010E94250F9B0120
:100EF000AC01C301B2010E94120E4B015C016EE213
:100F0000CE010E949F03E80EF91E115020F120E04F
:100F100030E040E251E4C501B4010E94DC0F2B0136
:100F20003C010E94F60E4B01B12CA12C2AE0B50128
:100F3000A401CE010E945606E80EF91EC501B401B7
:100F40000E94250F9B01AC01C301B2010E94120E49
:100F50004B015C01DACFC701DF91CF911F91FF9068
:100F6000EF90DF90CF90BF90AF909F908F907F9049
:100F70006F905F904F903F902F9008950C9447068C
:100F800085ED8093BC0080910E0290910F02A0919C
:100F90001002B09111020796A11DB11D23E0B69574
:100FA000A795979587952A95D1F72091BC0024FDA8
:100FB00003C010920C02089540910E0250910F024E
:100FC0006091100270911102452B462B472B69F35B
:100FD0000097A105B10541F02AE22A95F1F700C07A
:100FE0000197A109B109E1CF80910D020C94190478
:100FF0001F920F920FB60F9211242F933F938F934E
:101000009F93AF93BF9380914D0290914E02A09118
:101010004F02B09150023091480223E0230F2D3748
:1010200058F50196A11DB11D2093480280934D02F1
:1010300090934E02A0934F02B093500280914902C8
:1010400090914A02A0914B02B0914C020196A11DD1
:10105000B11D8093490290934A02A0934B02B09332
:101060004C02BF91AF919F918F913F912F910F9023
:101070000FBE0F901F90189526E8230F0296A11D12
:10108000B11DD2CF1F920F920FB60F9211242F9342
:101090003F934F935F936F937F938F939F93AF9300
:1010A000BF93EF93FF9381E592E00E940101FF91CE
:1010B000EF91BF91AF919F918F917F916F915F91D0
:1010C0004F913F912F910F900FBE0F901F90189549
:1010D0001F920F920FB60F9211242F938F939F930D
:1010E000EF93FF93E0916102F09162028081E091C1
:1010F0006702F091680282FD1BC0908180916A02B4
:101100008F5F8F7320916B02821741F0E0916A022A
:10111000F0E0EF5AFD4F958F80936A02FF91EF91B7
:101120009F918F912F910F900FBE0F901F90189548
:101130008081F4CF1F920F920FB60F9211242F933C
:101140003F934F935F936F937F938F939F93AF934F
:10115000BF93EF93FF938091B900887F803609F4A5
:101160004AC0F0F5883209F4A7C018F5803109F4B7
:101170009BC0B8F4882309F4F9C0883009F494C0FE
:10118000FF91EF91BF91AF919F918F917F916F915F
:101190005F914F913F912F910F900FBE0F901F9035
:1011A0001895883109F488C0803251F780930A027B
:1011B00014C0803409F49DC040F48033B9F38833FF
:1011C000F9F680930A0285ECB0C0803509F485C039
:1011D000883509F496C0883499F60E94C007D0CFAC
:1011E000883909F48CC038F5883729F050F48836EE
:1011F00011F0803729F683E080930C021092E5010C
:1012000057C0883809F47BC0803919F0803809F05C
:10121000B7CF8091E501803208F071C0E091E5011F
:1012200081E08E0F8093E5018091BB00F0E0EB53ED
:10123000FE4F80833DC0803B39F0E0F4803A09F4F2
:1012400079C0883A09F09CCF84E080930C02109218
:10125000C4011092C301E0913602F0913702099562
:101260008091C30181110FC081E08093C30110926E
:10127000A30109C0803C09F4A6CF883C09F4A3CFA0
:10128000883B09F07DCFE091C40181E08E0F80930F
:10129000C401F0E0ED55FE4F80818093BB0090913A
:1012A000C4018091C30129C08091E7018093BB00F4
:1012B00085EC8093BC0064CF909109028091080274
:1012C000981758F5E091090281E08E0F809309028A
:1012D000F0E0E851FE4F8081E9CFE091090281E022
:1012E0008E0F809309028091BB00F0E0E851FE4F21
:1012F000808390910902809108029817C8F285E8CE
:10130000D8CFE091090281E08E0F8093090280918D
:10131000BB00F0E0E851FE4F808380910B02811109
:101320005CCF81E08093E60184EA8093BC00109258
:101330000C0226CF85EC8093BC0010920C028091A9
:10134000E501803230F4E091E501F0E0EB53FE4F2F
:1013500010826091E50170E0E0913402F091350275
:1013600085EC91E009951092E5010ACF10920A02EE
:1013700034CFCF92DF92EF92FF920F931F93E82F1B
:10138000F92F05C0015011092109310961F190813E
:1013900096239417B9F305C00150110921093109A9
:1013A00011F1908196239413F7CFC12CD12CE12C0D
:1013B000F12C0AC08FEFC81AD80AE80AF80A0C15EF
:1013C0001D052E053F0579F080818623841791F352
:1013D0006C2D7D2D8E2D9F2D1F910F91FF90EF90E5
:1013E000DF90CF90089560E070E080E090E01F9182
:1013F0000F91FF90EF90DF90CF900895E1E5F2E03C
:101400001382128288EE93E0A0E0B0E0848395839B
:10141000A683B7832CE031E03183208325EC30E0D4
:101420003587248724EC30E03787268720EC30E0AE
:10143000318B208B21EC30E0338B228B22EC30E09F
:10144000358B248B26EC30E0378B268B118E128E59
:10145000138E148EEEEEF2E0138212828483958353
:10146000A683B7838EE191E091838083EDE0F3E082
:101470001382128280E391E09183808380E28483EF
:1014800084E1818784E082871386AAEFB2E082E05C
:1014900015968C9315978BE016968C931697E0EB28
:1014A000F0E0E4911796EC931797ECE9F0E0E49103
:1014B0001896EC93189740E85EE360E070E01D96A4
:1014C0004D935D936D937C9350970895CF93DF93E5
:1014D00000D000D01F92CDB7DEB7789484B582607B
:1014E00084BD84B5816084BD85B5826085BD85B5C8
:1014F000816085BD80916E00816080936E00109246
:1015000081008091810082608093810080918100C0
:101510008160809381008091800081608093800051
:101520008091B10084608093B1008091B0008160AF
:101530008093B00080917A00846080937A008091DB
:101540007A00826080937A0080917A008160809333
:101550007A0080917A00806880937A001092C100AE
:1015600010923B0210923A02109239021092380205
:101570000E94FB038DE993E090933702809336023B
:101580008EE993E090933502809334021092120317
:1015900080911703823018F098E0909312038093A3
:1015A000150362E370E080E090E00E945C026091CD
:1015B00018038DE093E00E94C00468EE73E080E0C1
:1015C00090E00E945C0260E38DE093E00E94AA0537
:1015D0008BE496E40197F1F760E38DE093E00E94DD
:1015E000AA058BE496E40197F1F760E38DE093E0C0
:1015F0000E94AA0583E592E00197F1F760E28DE091
:1016000093E00E94AA0560911203606240E08DE0C1
:1016100093E00E94C30584E08093130340E06CE0F4
:101620008DE093E00E94C3050E94DA0582E080937A
:10163000140340E066E08DE093E00E94C30540E0C3
:1016400062E08DE093E00E94C3058BE39FE1019788
:10165000F1F788E08093180360E08DE093E00E944A
:10166000C00461E087E00E94FB0160E086E00E9428
:10167000FB0162E08091FF020E94FB012FB7F8940A
:1016800080914D0290914E02A0914F02B091500274
:101690002FBF805D9740A109B10980930303909308
:1016A0000403A0930503B093060387E380930C0320
:1016B00060E08EE00E94FB0160E085E00E94FB019B
:1016C0004AE3242E312C00E010E060E087E00E9425
:1016D000CD0183E090E00197F1F761E087E00E949F
:1016E000CD0183E290E00197F1F760E087E00E948E
:1016F000CD0161E086E00E941F06CB01B1010E948E
:101700004E10709347026093460265317105B4F53F
:1017100061E08BE00E94CD0160E080E00E94E50581
:1017200064E471E08DE093E00E94BE0760914602A0
:10173000709147028DE093E00E94A2066BE471E095
:101740008DE093E00E94BE0760ED77E080E090E0DE
:101750000E945C020E948E02882349F0809100035F
:101760008B3028F08D3060F085518230D0F1412CE3
:10177000512C30EC632E3FE7732E20C060E0C9CFC0
:101780006091FB0270E090E080E00E94270F2DEC5A
:101790003CEC4CEC5DE30E94DC0F6B017C01609142
:1017A000FA0270E090E080E00E94270F9B01AC01FC
:1017B000C701B6010E94130E2B013C010E948E024C
:1017C000882341F0809100038C3009F4B7C1D8F42C
:1017D0008B30C1F1C12CD12C90ECE92E9FE7F92E72
:1017E0005DC06091FA027091FB0276276727762729
:1017F00090E080E00E94250F2DEC3CEC4CEC5DE38A
:101800000E94DC0FD9CF8551823020F7F091FC0285
:10181000F9836F2F70E0762F662766277F77809198
:10182000FD02682B90E080E00E94250F2DEC3CEC3F
:101830004CEC5DE30E94DC0F6B017C01298127FFEA
:101840002DC09EC16091FC0270E090E080E00E949B
:10185000250F6B017C019091FD02998397FF0AC0CF
:10186000A701960160E070E080E89FEB0E94120EF5
:101870006B017C01A981AF706A2F70E090E080E07D
:101880000E94270F2DEC3CEC4CEC5DE30E94DC0F3A
:10189000A70196010E94130E6B017C0160E08BE0B2
:1018A0000E94E5056EE471E08DE093E00E94BE07C2
:1018B00022E0B701A6018DE093E00E94D80661E026
:1018C00080E00E94E50563E571E08DE093E00E9411
:1018D000BE0722E0B301A2018DE093E00E94D8068A
:1018E00068E571E08DE093E00E94BE0760ED77E06F
:1018F00080E090E00E945C0261E08EE00E941F06A2
:10190000709345026093440260E08EE00E941F06DF
:101910002091440230914502620F731F072E000C84
:10192000880B990B0E94270F9B01AC0160E074E2C9
:1019300084E799E40E94840E4B015C0120E030E0D2
:1019400040EF50E40E94840E69837A838B839C83EA
:10195000609340027093410280934202909343024D
:1019600020E030E0A901C501B4010E94D70F87FD36
:1019700040C0E894B7F82FEF3FEF4FE75FE7C501AE
:10198000B4010E944910811100C12FEF3FEF4FE7D2
:101990005FE7C501B4010E947F0E18160CF0F5C078
:1019A0000E94DA0562E080E00E94E5056AE571E0E8
:1019B0008DE093E00E94BE0763E080E00E94E505B1
:1019C00062E671E08DE093E00E94BE0740913C0228
:1019D00050913D0260913E0270913F0222E08DE005
:1019E00093E00E94D80669E671E08DE093E00E94E2
:1019F000BE0760ED77E080E090E00E945C02E1E8E5
:101A0000F0E08491E3EBF0E0F491F983EFE9F0E0AA
:101A1000F491FD83FF2309F4F2C081110E94A40117
:101A20002D81E22FF0E0EE0FFF1FE057FF4FA59151
:101A3000B4918C919981982309F4E1C061E08BE025
:101A40000E94E5056CE771E08DE093E00E94BE071F
:101A500068EE73E080E090E00E945C02A1E0B0E0FC
:101A6000BA83A983609146027091470281E592E0B2
:101A70000E94A20664E771E081E592E00E94BE0741
:101A800022E0B701A60181E592E00E94D80664E752
:101A900071E081E592E00E94BE0722E0B301A2015D
:101AA00081E592E00E94D80664E771E081E592E06A
:101AB0000E94BE0740914002509141026091420253
:101AC0007091430222E081E592E00E94D80664E72B
:101AD00071E081E592E00E94BE0740913C02509186
:101AE0003D0260913E0270913F0222E081E592E06A
:101AF0000E94D80664E771E081E592E00E94BE078B
:101B000069817A8181E592E00E94A20666E771E030
:101B100081E592E00E94470668EE73E080E090E085
:101B20000E945C020115110509F4CFCD0E949001BD
:101B3000882309F4CACD0E940000C7CDB091FC02F1
:101B4000B9836B2F70E090E080E00E94250F6B015D
:101B50007C016091FD026F7070E090E080E00E9477
:101B6000270F2DEC3CEC4CEC5DE30E94DC0FA70151
:101B700096010E94130E6B017C01E981E7FF8ECE76
:101B8000F7FAF094F7F8F09489CE20E030E040E7DF
:101B900052E469817A818B819C810E94840E9B0131
:101BA000AC0160913C0270913D0280913E029091A7
:101BB0003F020E94130E60933C0270933D0280939B
:101BC0003E0290933F020E94DA0562E080E00E94AC
:101BD000E5056BE671E08DE093E00E94BE07409161
:101BE000400250914102609142027091430222E012
:101BF0008DE093E00E94D80660E771E0D9CE61E005
:101C00008BE00E94E50569E771E08DE093E00E94BA
:101C1000BE0768EE73E080E090E00E945C021A82EA
:101C2000198220CF5058BB27AA270E942A0E0C9455
:101C30009D0F0E948F0F38F00E94960F20F039F40C
:101C40009F3F19F426F40C948C0F0EF4E095E7FBFB
:101C50000C94860FE92F0E94AE0F58F3BA17620753
:101C600073078407950720F079F4A6F50C94D00F3C
:101C70000EF4E0950B2EBA2FA02D0B01B9019001A7
:101C80000C01CA01A0011124FF27591B99F0593FEB
:101C900050F4503E68F11A16F040A22F232F342F33
:101CA0004427585FF3CF469537952795A795F04081
:101CB0005395C9F77EF41F16BA0B620B730B840B96
:101CC000BAF09150A1F0FF0FBB1F661F771F881F4E
:101CD000C2F70EC0BA0F621F731F841F48F48795A6
:101CE00077956795B795F7959E3F08F0B0CF939598
:101CF000880F08F09927EE0F9795879508950E9411
:101D0000620F08F481E008950E94980E0C949D0FD4
:101D10000E94960F58F00E948F0F40F029F45F3F09
:101D200029F00C94860F51110C94D10F0C948C0F48
:101D30000E94AE0F68F39923B1F3552391F3951BDD
:101D4000550BBB27AA2762177307840738F09F5FDC
:101D50005F4F220F331F441FAA1FA9F335D00E2E49
:101D60003AF0E0E832D091505040E695001CCAF7B6
:101D70002BD0FE2F29D0660F771F881FBB1F261779
:101D800037074807AB07B0E809F0BB0B802DBF0150
:101D9000FF2793585F4F3AF09E3F510578F00C941F
:101DA000860F0C94D10F5F3FE4F3983ED4F38695F1
:101DB00077956795B795F7959F5FC9F7880F911D40
:101DC0009695879597F90895E1E0660F771F881F2C
:101DD000BB1F621773078407BA0720F0621B730BDF
:101DE000840BBA0BEE1F88F7E09508950E94B60F9A
:101DF00088F09F5798F0B92F9927B751B0F0E1F0CC
:101E0000660F771F881F991F1AF0BA95C9F714C07B
:101E1000B13091F00E94D00FB1E008950C94D00F32
:101E2000672F782F8827B85F39F0B93FCCF38695B4
:101E300077956795B395D9F73EF490958095709511
:101E400061957F4F8F4F9F4F0895E89409C097FB8E
:101E50003EF490958095709561957F4F8F4F9F4F81
:101E60009923A9F0F92F96E9BB279395F6958795C5
:101E700077956795B795F111F8CFFAF4BB0F11F488
:101E800060FF1BC06F5F7F4F8F4F9F4F16C088232F
:101E900011F096E911C0772321F09EE8872F762F65
:101EA00005C0662371F096E8862F70E060E02AF0A6
:101EB0009A95660F771F881FDAF7880F9695879592
:101EC00097F90895990F0008550FAA0BE0E8FEEF67
:101ED00016161706E807F907C0F012161306E407EE
:101EE000F50798F0621B730B840B950B39F40A26E7
:101EF00061F0232B242B252B21F408950A2609F4C5
:101F0000A140A6958FEF811D811D089597F99F67C8
:101F100080E870E060E008959FEF80EC0895002471
:101F20000A941616170618060906089500240A943E
:101F300012161306140605060895092E0394000CC4
:101F400011F4882352F0BB0F40F4BF2B11F460FF53
:101F500004C06F5F7F4F8F4F9F4F089557FD90587C
:101F6000440F551F59F05F3F71F04795880F97FB5D
:101F7000991F61F09F3F79F0879508951216130617
:101F80001406551FF2CF4695F1DF08C01616170646
:101F90001806991FF1CF869571056105089408957B
:101FA000E894BB2766277727CB0197F908950E940D
:101FB000620F08F48FEF08950E94EF0F0C949D0FAD
:101FC0000E948F0F38F00E94960F20F0952311F099
:101FD0000C94860F0C948C0F11240C94D10F0E943A
:101FE000AE0F70F3959FC1F3950F50E0551F629FA0
:101FF000F001729FBB27F00DB11D639FAA27F00D62
:10200000B11DAA1F649F6627B00DA11D661F829F88
:102010002227B00DA11D621F739FB00DA11D621F6D
:10202000839FA00D611D221F749F3327A00D611D8A
:10203000231F849F600D211D822F762F6A2F11246C
:102040009F5750409AF0F1F088234AF0EE0FFF1F9F
:10205000BB1F661F771F881F91505040A9F79E3FF6
:10206000510580F00C94860F0C94D10F5F3FE4F380
:10207000983ED4F3869577956795B795F795E7954C
:102080009F5FC1F7FE2B880F911D9695879597F955
:1020900008950E94620F880B990B089597FB072EF5
:1020A00016F4009407D077FD09D00E94841007FC35
:1020B00005D03EF4909581959F4F08957095619558
:1020C0007F4F0895A1E21A2EAA1BBB1BFD010DC074
:1020D000AA1FBB1FEE1FFF1FA217B307E407F507D8
:1020E00020F0A21BB30BE40BF50B661F771F881FB4
:1020F000991F1A9469F760957095809590959B014A
:10210000AC01BD01CF010895AA1BBB1B51E107C063
:10211000AA1FBB1FA617B70710F0A61BB70B881F77
:10212000991F5A95A9F780959095BC01CD01089506
:10213000EE0FFF1F0590F491E02D0994F894FFCF66
:102140000000400014005400000000002301A6031A
:10215000C4007001F500D300E70000000000910406
:102160006404A7053A045D044A043B04000000002F
:102170001906A603A705D3036E616E00696E66009B
:102180006F766600572E4C65763D00636D00546592
:102190006D3D0048756D3D002500564F4C3A302E80
:1021A0003000544F54414C3A004C00564F4C3A00CA
:1021B0004C2F4D002C000D0A004E4F205241494E2D
:0221C00000001D
:107E0000112484B714BE81FFF0D085E080938100F7
:107E100082E08093C00088E18093C10086E0809377
:107E2000C20080E18093C4008EE0C9D0259A86E02C
:107E300020E33CEF91E0309385002093840096BBD3
:107E4000B09BFECF1D9AA8958150A9F7CC24DD24C4
:107E500088248394B5E0AB2EA1E19A2EF3E0BF2EE7
:107E6000A2D0813461F49FD0082FAFD0023811F036
:107E7000013811F484E001C083E08DD089C08234E0
:107E800011F484E103C0853419F485E0A6D080C0E4
:107E9000853579F488D0E82EFF2485D0082F10E0AE
:107EA000102F00270E291F29000F111F8ED06801E7
:107EB0006FC0863521F484E090D080E0DECF843638
:107EC00009F040C070D06FD0082F6DD080E0C81688
:107ED00080E7D80618F4F601B7BEE895C0E0D1E017
:107EE00062D089930C17E1F7F0E0CF16F0E7DF06D8
:107EF00018F0F601B7BEE89568D007B600FCFDCFD4
:107F0000A601A0E0B1E02C9130E011968C91119780
:107F100090E0982F8827822B932B1296FA010C0160
:107F200087BEE89511244E5F5F4FF1E0A038BF0790
:107F300051F7F601A7BEE89507B600FCFDCF97BE46
:107F4000E89526C08437B1F42ED02DD0F82E2BD052
:107F50003CD0F601EF2C8F010F5F1F4F84911BD097
:107F6000EA94F801C1F70894C11CD11CFA94CF0C13
:107F7000D11C0EC0853739F428D08EE10CD085E9AC
:107F80000AD08FE07ACF813511F488E018D01DD067
:107F900080E101D065CF982F8091C00085FFFCCF94
:107FA0009093C60008958091C00087FFFCCF809118
:107FB000C00084FD01C0A8958091C6000895E0E648
:107FC000F0E098E1908380830895EDDF803219F02E
:107FD00088E0F5DFFFCF84E1DECF1F93182FE3DFCA
:107FE0001150E9F7F2DF1F91089580E0E8DFEE27F6
:047FF000FF270994CA
:027FFE00040479
:00000001FF
